:100000007FC10000AEC10000ACC10000AAC1000069
:10001000A8C10000A6C10000A4C10000A2C1000048
:10002000A0C100009EC100009CC100009AC1000058
:1000300098C1000096C1000040C5000092C10000B8
:1000400090C100008EC100008CC100008AC1000078
:100050000C949B1186C1000084C1000082C1000085
:1000600080C100007EC100007CC100007AC1000098
:1000700078C1000076C1000074C1000072C10000A8
:1000800070C100006EC100006CC100006AC10000B8
:1000900068C1000066C1000064C1000062C10000C8
:1000A00060C100005EC100005CC100005AC10000D8
:1000B00058C1000056C1000054C1000052C10000E8
:1000C00050C100004EC100004CC100004AC10000F8
:1000D00048C1000046C1000044C1000042C1000008
:1000E00040C100003EC100003CC100003AC1000018
:1000F00038C1000036C1000034C1000032C1000028
:1001000030C100002EC100002CC100002AC1000037
:1001100028C1000026C1000024C1000022C1000047
:1001200020C100001EC100001CC100001AC1000057
:1001300018C1000016C1000014C1000012C1000067
:1001400010C100000EC100000CC100000AC1000077
:1001500008C1000006C1000004C1000002C1000087
:1001600000C10000FEC00000FCC00000FAC000009A
:10017000F8C00000F6C00000F4C00000F2C00000AB
:10018000F0C00000EEC00000ECC00000EAC00000BB
:10019000E8C00000E6C00000E4C00000E2C00000CB
:1001A000E0C00000DEC00000DCC00000DAC00000DB
:1001B000D8C00000D6C00000D4C00000D2C00000EB
:1001C000D0C00000CEC00000CCC00000CAC00000FB
:1001D000C8C00000C6C00000C4C00000C2C000000B
:1001E000C0C00000BEC00000BCC00000BAC000001B
:1001F000B8C00000B6C00000B4C00000BCA23C3FC4
:1002000090C48D3F0987D03F1054EF3F000000405D
:1002100069042140EC25414033716040E1EC7E40AF
:10022000034D8E4002BB9C4012BEAA405753B840BB
:10023000D977C540BE28D2407563DE40D225EA405A
:100240001A6EF540871D0041F64505413A300A41D6
:100250006FDC0E41EA4A1341397C17411B711B4187
:10026000802A1F417EA9224153EF25415BFD284191
:1002700011D52B4104782E41D8E730414026334137
:10028000FA343541CD15374182CA3841E8543A41F4
:10029000CAB63B41F3F13C4126083E4123FB3E41B7
:1002A0009FCC3F41477E4041BC114141958841412F
:1002B0005CE441418F2642419F504241EF634241FD
:1002C000D4614241984B42417322424193E74141FC
:1002D000199C41411641414191D7404183604041C1
:1002E000D8DC3F41744D3F412AB33E41C70E3E41E9
:1002F0000A613D41A9AA3C4151EC3B41F711FA1179
:1003000011241FBECFEFCDBFDFE3DEBF00E00CBF87
:1003100010E2A0E0B0E2E8EBF8E200E00BBF02C0C0
:1003200007900D92A632B107D9F726E2A6E2B0E215
:1003300001C01D92A03FB207E1F712E0CEEFD2E07C
:1003400000E006C022970109FE010BBF0E94A11325
:10035000CC3FD10780E00807A9F70E94C8100C9491
:100360004B144ECE3D0A4F0A850AE00A5E0B010C83
:10037000C60CAE0DB80EE40F31119D122914D31521
:100380009A177D197C1B931DC41F0B226824D92644
:100390005C29F12B962E48310634CF36A1397A3CB0
:1003A000583F3A421E450148E34AC14D9A506C53AA
:1003B0003556F458A65B4A5EDF606363D4653168E6
:1003C000786AA86CC06EBE70A172687412769E774F
:1003D0000B79577A837B8D7C757D3B7EDD7E5B7FE1
:1003E000B67FEC7FFE7FEC7FB67F5B7FDD7E3B7E62
:1003F000757D8D7C837B577A0B799E771276687436
:10040000A172BE70C06EA86C786A3168D4656363EF
:10041000DF604A5EA65BF45835566C539A50C14D66
:10042000E34A01481E453A42583F7A3CA139CF364B
:1004300006344831962EF12B5C29D92668240B22EC
:10044000C41F931D7C1B7E199A17D31529149D1266
:100450003111E40FB80EAE0DC60C010C5E0BE00AB4
:10046000850A4F0AFF7F0000D77F4706617F8B0C0C
:100470009C7EC712897DF818297C191F7C7A272554
:1004800083781E2B4076FB30B573B936E170563C4D
:10049000C96DCD416C6A1C47CE663F4CF162335149
:1004A000D65EF455815A815AF455D65E3351F162C5
:1004B0003F4CCE661C476C6ACD41C96D563CE1701D
:1004C000B936B573FB3040761E2B837827257C7AAE
:1004D000191F297CF818897DC7129C7E8B0C617FBF
:1004E0004706D77F0000FE7FB9F9D77F75F3617F9C
:1004F00039ED9C7E08E7897DE7E0297CD9DA7C7AB2
:10050000E2D4837805CF407647C9B573AAC3E170BA
:1005100033BEC96DE4B86C6AC1B3CE66CDAEF162CC
:100520000CAAD65E7FA5815A2AA1F5550F9D33519D
:1005300032993F4C94951C473792CD411F8F563CC2
:100540004C8CB936C089FB307D871E2B84852725CE
:10055000D883191F7782F8186481C7129F808B0C8B
:100560002980470600000001800080014000400112
:10057000C000C00120002001A000A00160006001B7
:10058000E000E001100010019000900150005001C7
:10059000D000D00130003001B000B0017000700117
:1005A000F000F001080008018800880148004801B7
:1005B000C800C80128002801A800A8016800680137
:1005C000E800E80118001801980098015800580147
:1005D000D800D80138003801B800B8017800780197
:1005E000F800F8013F922F921F930F93DF93CF9360
:1005F000DC01EB019927E4E6F3E000E810E0259147
:1006000035914D915D91B503B0012C031001691F27
:10061000BC03790B300C611D791FDA03790B300CA8
:10062000611D791F69937993699379930150104003
:1006300031F7CF91DF910F911F912F903F901124AF
:1006400008953F922F925F924F927F926F929F9266
:100650008F92BF92AF92DF92CF92FF92EF921F9351
:100660000F93DF93CF93FC0181E090E0A0E4B0E032
:1006700004E0809F6001909FD00C7C019F938F933A
:10068000EF01A09FC00DD11DB09FD00DFF93EF9340
:10069000BB24AA24992700811181159507956881AB
:1006A000798175956795A801061B170B460F571F93
:1006B0004193519320813181359527956A817B81C2
:1006C00075956795A901261B370B460F571F419358
:1006D00051930F01E4E6F4E0EA0DFB1D45915591BD
:1006E00065917591F001950320010C031001491EDD
:1006F0009C03590A300C411C591ED803590A300C6E
:10070000411C591EB70340012E033001891EBE0350
:10071000990A700C811C991EFA03990A700C811CAD
:10072000991E260C371C481C591C49925992B50336
:1007300020012C031001491EBC03590A300C411C36
:10074000591EDA03590A300C411C591E9703400107
:100750000E033001891E9E03990A700C811C991E9C
:10076000F803990A700C811C991E2618370848084E
:10077000590849925992AC0CBD1CB0FE8CCF04E0D4
:10078000A09FC00DD11DE00DF11DB09FD00DF00D4B
:1007900081E0E81AF90A09F07BCFEF91FF918F9180
:1007A0009F91880F991FB695A795109609F060CF75
:1007B000CF91DF910F911F91EF90FF90CF90DF903D
:1007C000AF90BF908F909F906F907F904F905F9071
:1007D0002F903F9008953F922F925F924F927F9279
:1007E0006F929F928F92BF92AF921F930F93DF935E
:1007F000CF935C01EB01E4E6F5E0992700E410E01B
:10080000A591B591AA0DBB1D2D913D914D915D9185
:10081000B30320012A031001491EBA03590A300C00
:10082000411C591EBA03590A300C411C591ED503EC
:1008300040014C033001891EDC03990A700C811CB5
:10084000991EDC03990A700C811C991E260C371C1A
:10085000481C591C662477248824992421E030E020
:100860004427552770E1220C331C441C551C661C80
:10087000771C881C991C220C331C441C551C661CBC
:10088000771C881C991C2AF4620E731E841E951E08
:1008900004C0621A730A840A950A220F331F441F88
:1008A000287F256097FC22507A95E9F64695379582
:1008B00027954695379527952993399301501040F0
:1008C00009F09ECFCF91DF910F911F91AF90BF9014
:1008D0008F909F906F907F904F905F902F903F9060
:1008E00011240895AC019927D703F0014E03D001DC
:1008F000E91FDE03F90BB00DE11DF91FFC03F90B35
:10090000B00DE11DF91FCF0111240895A0E4B2E05C
:1009100090E312969C93129781E014968C9314970F
:1009200011961C9211978C93E0E0F2E092838483FD
:100930001182808390968C93909798E091969C93E7
:10094000919711969C911197986011969C9311978D
:1009500090969C919097906890969C9380A398E332
:1009600091A391819860918390A1906890A3E0E019
:10097000F8E0808382E0868387EE93E086A397A3E6
:100980000895809120018F7780932001809130011C
:100990008F77809330018091200187FDFCCF80917B
:1009A000300187FDFCCF809120018064809320017D
:1009B000809130018064809330018091200186FD18
:1009C000FCCF8091300186FDFCCFE1E9E09322016C
:1009D00070E47093230165E26093200182E090E06F
:1009E000809324019093250150E85093260124E63A
:1009F0002093280142E04093290110922A0128E225
:100A000031E220932C0130932D0110922E01209180
:100A10002001206820932001E0933201709333017C
:100A200060933001809334019093350150933601E7
:100A300084E2809338014093390110923A0188E2B0
:100A400090E280933C0190933D0110923E01809191
:100A50003001806880933001109227201092262068
:100A600081E08093E122089580912101807C21F42E
:100A70008091030181FD1BC080913101807C21F4B4
:100A80008091030182FD0DC080912720882339F0D9
:100A900080912620882321F082E08093E12208952E
:100AA0000895809126208F5F80932620EDCF80913E
:100AB00027208F5F80932720DFCF1F920F920FB6E2
:100AC0000F9211240F900FBE0F901F9018958EE07B
:100AD000E3EDF2E2DF01982F1D929A95E9F7E5EC3C
:100AE000F2E2DF011D928A95E9F780E2E8E9F2E29D
:100AF000DF01982F1D929A95E9F7E8E7F2E2DF010E
:100B0000982F1D929A95E9F7E8E5F2E2DF011D9230
:100B10008A95E9F7109256221092572241E250E04E
:100B200060E070E083E392E20E94FC138091332244
:100B30008A3A09F467C081E2E3E3F2E2DF011D9241
:100B40008A95E9F781E498E18093342290933522E5
:100B500087E99FE0809336229093372285E290E0E8
:100B6000809338229093392282E290E080933A2257
:100B700090933B2288E390E080933C2290933D2227
:100B800084E690E080933E2290933F2282E990E0B9
:100B9000809340229093412283ED97E180934222FB
:100BA000909343228EE29FE08093442290934522CB
:100BB00084E790E080934622909347228DE890E06E
:100BC000809348229093492285ED90E080934A22B9
:100BD00090934B2288EA91E080934C2290934D228F
:100BE00089E892E080934E2290934F228EE290E02B
:100BF000809350229093512285EA90E08093522274
:100C0000909353221092C0221092BF221092BE22C3
:100C10001092BD221092542210925522109232222C
:100C200008952091322221FF15C04091E322509176
:100C3000E4226091E5227091E62280912D2290912C
:100C40002E22A0912F22B0913022481759076A070F
:100C50007B0740F4E0915422F0915522309709F43B
:100C600046C019944091E3225091E4226091E5221C
:100C70007091E62280911D2090911E20A0911F204E
:100C8000B0912020840F951FA61FB71F80932D229F
:100C900090932E22A0932F22B093302220FF08C0E1
:100CA00022FF29C00E94EE13809131228823D1F3C4
:100CB00010923122E0911920F0911A203097C1F062
:100CC00019958091312290E029E1289FF001299F18
:100CD000F00D1124EC5FFF4D9789808D9093542285
:100CE00080935522E92FF82F309709F0BACF089555
:100CF00080E090E0E9CF0E94EE1310923122DACF2B
:100D00002F923F924F925F926F927F928F929F921B
:100D1000AF92BF92CF92DF92EF92FF920F931F9309
:100D2000CF93DF93CDB7DEB7C855D109CDBFDEBFB6
:100D300089839A836B837C83DC014D905C9011974F
:100D40004092D3225092D422FB0100811181009362
:100D5000C5221093C62212962D913C911397298794
:100D60003A872093D5223093D622428153814B87F4
:100D70005C874093C7225093C822868197818B8BD2
:100D80009C8BA481B581AF87B88BCD01A0E0B0E08A
:100D9000EB89FC898E0F9F1FA11DB11DE981FA818E
:100DA0000680F781E02DE98BFA8BE981FA810480D6
:100DB000F581E02DED87FE87AF0160E070E02989C5
:100DC0003A89420F531F611D711D7695679557959E
:100DD00047954093D7225093D822B695A7959795DB
:100DE00087958093C9229093CA22A981BA811896C7
:100DF0000D90BC91A02DAD8BBE8BE981FA81028450
:100E0000F385E02DE98FFA8FAF0160E070E04A0FC3
:100E10005B1F611D711DAB81BC8118960D90BC914B
:100E2000A02DAF8BB88FEB81FC810284F385E02D80
:100E3000EB8FFC8FCF01A0E0B0E02F89388D820FBF
:100E4000931FA11DB11DE981FA810484F585E02D70
:100E5000ED8FFE8F4E0F5F1F611D711DEB81FC81B9
:100E60000484F585E02DEF8FF8A38E0F9F1FA11D41
:100E7000B11DEB81FC810684F785E02DEBA3FCA37B
:100E80008E0F9F1FA11DB11DE981FA810684F78590
:100E9000E02DE9A3FAA34E0F5F1F611D711D76952A
:100EA00067955795479576956795579547954093DC
:100EB000D9225093DA22B695A79597958795B6953E
:100EC000A795979587958093CB229093CC22A98163
:100ED000BA8150960D90BC91A02DADA3BEA3E9811F
:100EE000FA810288F389E02DE9A7FAA7AF0160E053
:100EF00070E04A0F5B1F611D711DAB81BC81509674
:100F00000D90BC91A02DAFA3B8A7EB81FC81028806
:100F1000F389E02DEBA7FCA7CF01A0E0B0E02FA163
:100F200038A5820F931FA11DB11DE981FA810488A4
:100F3000F589E02DEDA7FEA74E0F5F1F611D711D06
:100F4000EB81FC810488F589E02DEFA7F8AB8E0FCB
:100F50009F1FA11DB11DE981FA810688F789E02D47
:100F6000E9ABFAAB4E0F5F1F611D711DEB81FC8178
:100F70000688F789E02DEBABFCAB8E0F9F1FA11D00
:100F8000B11DE981FA81008CF18DE02DEDABFEAB56
:100F90004E0F5F1F611D711DEB81FC81008CF18D77
:100FA000E02DEFABF8AF8E0F9F1FA11DB11DE981A2
:100FB000FA81028CF38DE02DE9AFFAAF4E0F5F1F7F
:100FC000611D711DEB81FC81028CF38DE02DEBAF77
:100FD000FCAF8E0F9F1FA11DB11DE981FA81048C0A
:100FE000F58DE02DEDAFFEAF4E0F5F1F611D711D42
:100FF000EB81FC81048CF58DE02D2196EEAFFFAFE7
:1010000021978E0F9F1FA11DB11DEB81FC81068CC6
:10101000F78DE02D2596EEAFFFAF25978E0F9F1F22
:10102000A11DB11DE981FA81068CF78DE02D239673
:10103000EEAFFFAF23974E0F5F1F611D711DE3E001
:101040007695679557954795EA95D1F74093DB22BA
:101050005093DC22F3E0B695A79597958795FA957E
:10106000D1F78093CD229093CE22A981BA81909618
:101070000D90BC91A02D2796AEAFBFAF2797E98109
:10108000FA8102A0F3A1E02D2B96EEAFFFAF2B97D4
:10109000AF0160E070E04A0F5B1F611D711DAB8105
:1010A000BC8190960D90BC91A02D2996AEAFBFAF9C
:1010B0002997EB81FC8102A0F3A1E02D2D96EEAFE4
:1010C000FFAF2D97CF01A0E0B0E029962EAD3FAD48
:1010D0002997820F931FA11DB11DE981FA8104A0F8
:1010E000F5A1E02D2F96EEAFFFAF2F974E0F5F1FAC
:1010F000611D711DEB81FC8104A0F5A1E02D6196BD
:10110000EEAFFFAF61978E0F9F1FA11DB11DE9814B
:10111000FA8106A0F7A1E02D6396EEAFFFAF6397CB
:101120004E0F5F1F611D711DEB81FC8106A0F7A1B1
:10113000E02D6596EEAFFFAF65978E0F9F1FA11D47
:10114000B11DE981FA8120A531A5420F531F611D10
:10115000711DEB81FC8120A531A5820F931FA11D7C
:10116000B11DE981FA8122A533A5420F531F611DEC
:10117000711DEB81FC8122A533A5820F931FA11D58
:10118000B11DE981FA8124A535A5420F531F611DC8
:10119000711DEB81FC8124A535A5820F931FA11D34
:1011A000B11DE981FA8126A537A5420F531F611DA4
:1011B000711DEB81FC8126A537A5820F931FA11D10
:1011C000B11DE981FA8120A931A9420F531F611D88
:1011D000711DEB81FC8120A931A9820F931FA11DF4
:1011E000B11DE981FA8122A933A9420F531F611D64
:1011F000711DEB81FC8122A933A9820F931FA11DD0
:10120000B11DE981FA8124A935A9420F531F611D3F
:10121000711DEB81FC8124A935A9820F931FA11DAB
:10122000B11DE981FA8126A937A9420F531F611D1B
:10123000711DEB81FC8126A937A9820F931FA11D87
:10124000B11DE981FA8120AD31AD420F531F611DFF
:10125000711DEB81FC8120AD31AD820F931FA11D6B
:10126000B11DE981FA8122AD33AD420F531F611DDB
:10127000711DEB81FC8122AD33AD820F931FA11D47
:10128000B11DE981FA8124AD35AD420F531F611DB7
:10129000711DEB81FC8124AD35AD820F931FA11D23
:1012A000B11D26AD37AD820F931FA11DB11DE98180
:1012B000FA8126AD37AD420F531F611D711D24E029
:1012C00076956795579547952A95D1F74093DD22F6
:1012D0005093DE2234E0B695A795979587953A9579
:1012E000D1F78093CF229093D0229F01205C3F4F73
:1012F000AB80BC80F0E4AF0EB11C40E2488760E0F8
:1013000070E0CB01C12CD12C7601D901F5012D91D2
:101310003D91620F731F811D911D21913191C20E6C
:10132000D31EE11CF11C415091F748872CE1822E1D
:10133000912CA12CB12CA50194010E947F13209324
:10134000DF223093E022C701B601A50194010E947B
:101350007F132093D1223093D2221092BB2210927D
:10136000BA228FEF8093B822612C712C4801A12CF6
:10137000B12C1E821D825FEF5F8389819A812B8051
:101380003C80FFEFE0E0CC24CA94DC2C76010FEF28
:101390001FEF98016996EFAF699767968EAF9FAF81
:1013A00067976896FFAF68976796AEADBFAD6797D2
:1013B0008D919D916796AEAFBFAF6797A0E0B0E00B
:1013C000481659066A067B0630F46996EFAD6997B0
:1013D000EE832C013D01F101419151911F0160E02B
:1013E00070E084169506A606B70630F46996FFAD40
:1013F0006997FD834A015B018C159D05AE05BF050C
:1014000040F46996EFAD69976896EFAF68976C0105
:101410007D01401751076207730730F46996FFADED
:101420006997FF838C019D0169964FAD69974F5F66
:1014300069964FAF6997403409F0B6CF6896FFAD13
:1014400068975E815093BB228D818093BA22F0937E
:10145000B9229F819093B822A981BA81AE57BF4F1C
:1014600089819A8180589F4FED90FC90DC018D918D
:101470009C91E81AF90AE092C322F092C422AB814F
:10148000BC81AE57BF4F8B819C8180589F4FCD90C0
:10149000DC90FC0180819181C81AD90AC092C122D6
:1014A000D092C222AB81BC814D915C91E981FA81DD
:1014B00020813181420F531F569547956B857C855E
:1014C00029853A85620F731F7695679580E090E0D5
:1014D000640F751F811D911D50905722852C912CF2
:1014E0002F8538894D855E85240F351F36952795C4
:1014F000620F731F811D911D23E030E040E050E03A
:101500000E947F1339015401AA0CBB1CF501E85657
:10151000FD4D208331832B893C8989899A89280F45
:10152000391F369527956F89788DAD89BE896A0FE9
:101530007B1F7695679580E090E0620F731F811D99
:10154000911D2B8D3C8DE98DFA8D2E0F3F1F369509
:101550002795620F731F811D911D2F8D38A14D8D11
:101560005E8D240F351F36952795620F731F811DE1
:10157000911D2BA13CA1A9A1BAA12A0F3B1F369511
:101580002795620F731F811D911D2FA138A5EDA115
:10159000FEA12E0F3F1F36952795620F731F811DE9
:1015A000911D2BA53CA549A55AA5240F351F36959D
:1015B0002795620F731F811D911D2FA538A9ADA519
:1015C000BEA52A0F3B1F36952795620F731F811DFD
:1015D000911D2BA93CA9E9A9FAA92E0F3F1F369509
:1015E0002795620F731F811D911D2FA938AD4DA93D
:1015F0005EA9240F351F36952795620F731F811D35
:10160000911D2BAD3CADA9ADBAAD2A0F3B1F369550
:101610002795620F731F811D911D21962EAD3FAD41
:101620002197EDADFEAD2E0F3F1F36952795620F2A
:10163000731F811D911D25962EAD3FAD25972396D5
:101640004EAD5FAD2397240F351F36952795620F5A
:10165000731F811D911D29962EAD3FAD29972796A9
:10166000AEADBFAD27972A0F3B1F36952795620F6A
:10167000731F811D911D2D962EAD3FAD2D972B967D
:10168000EEADFFAD2B972E0F3F1F36952795620FBE
:10169000731F811D911D61962EAD3FAD61972F96F1
:1016A0004EAD5FAD2F97240F351F36952795620FEE
:1016B000731F811D911D65962EAD3FAD6597639695
:1016C000AEADBFAD63972A0F3B1F36952795620FCE
:1016D000731F811D911D21E130E040E050E00E9428
:1016E0007F138901F501E858FD4D20833183A981DD
:1016F000BA8198962B813C81285D3F4FE4E160E000
:1017000070E0CB01AB01BC014E2EF9012D913D9152
:1017100081919191820F931F96958795480F591F3C
:10172000611D711D43942FE34212F0CFCB01BA012A
:101730002BE230E040E050E0E2D71901F501E85A31
:10174000FD4D20833183509256223FEF831A930A36
:101750004FE084229924809257222091D322309105
:10176000D42280913422909135228217930708F475
:10177000AEC31092D3221092D4222091C522309170
:10178000C62280914222909143228217930708F447
:1017900097C31092C5221092C6222091D522309173
:1017A000D62280913622909137228217930708F42F
:1017B00080C31092D5221092D6222091C722309158
:1017C000C82280914422909145228217930708F401
:1017D00069C31092C7221092C8222091D72230915B
:1017E000D82280913822909139228217930708F4E9
:1017F00052C31092D7221092D8222091C922309140
:10180000CA2280914622909147228217930708F4BA
:101810003BC31092C9221092CA222091D922309142
:10182000DA2280913A2290913B228217930708F4A2
:1018300024C31092D9221092DA222091CB22309127
:10184000CC2280914822909149228217930708F474
:101850000DC31092CB221092CC222091DB2230912A
:10186000DC2280913C2290913D228217930708F45C
:10187000F6C21092DB221092DC222091CD22309110
:10188000CE2280914A2290914B228217930708F42E
:10189000DFC21092CD221092CE222091DD22309113
:1018A000DE2280913E2290913F228217930708F416
:1018B000C8C21092DD221092DE222091CF223091F8
:1018C000D02280914C2290914D228217930708F4E8
:1018D000B1C21092CF221092D0222091DF223091FB
:1018E000E02280914022909141228217930708F0D4
:1018F0009CC2281B390B2093DF223093E0222091D9
:10190000D1223091D22280914E2290914F22821783
:10191000930708F085C2281B390B2093D1223093FE
:10192000D22280915022909151228E159F0508F06D
:1019300072C2E81AF90AE092C322F092C42280919E
:101940005222909153228C159D0508F05FC2C81A4F
:10195000D90AC092C122D092C22220915A2230913B
:101960005B22609158227091592280E090E0620FD2
:10197000731F811D911D20917A2230917B228090CE
:10198000782290907922A12CB12C820E931EA11C5A
:10199000B11C20919A2230919B22C0909822D09025
:1019A0009922E12CF12CC20ED31EE11CF11C2091D6
:1019B0005C2230915D22620F731F811D911D209169
:1019C0007C2230917D22820E931EA11CB11C20919D
:1019D0009C2230919D22C20ED31EE11CF11C20914D
:1019E0005E2230915F22620F731F811D911D209135
:1019F0007E2230917F22820E931EA11CB11C209169
:101A00009E2230919F22C20ED31EE11CF11C209118
:101A1000602230916122620F731F811D911D209100
:101A2000802230918122820E931EA11CB11C209134
:101A3000A0223091A122C20ED31EE11CF11C2091E4
:101A4000622230916322620F731F811D911D2091CC
:101A5000822230918322820E931EA11CB11C209100
:101A6000A2223091A322C20ED31EE11CF11C2091B0
:101A7000642230916522620F731F811D911D209198
:101A8000842230918522820E931EA11CB11C2091CC
:101A9000A4223091A522C20ED31EE11CF11C20917C
:101AA000662230916722620F731F811D911D209164
:101AB000862230918722820E931EA11CB11C209198
:101AC000A6223091A722C20ED31EE11CF11C209148
:101AD000682230916922620F731F811D911D209130
:101AE000882230918922820E931EA11CB11C209164
:101AF000A8223091A922C20ED31EE11CF11C209114
:101B00006A2230916B22620F731F811D911D2091FB
:101B10008A2230918B22820E931EA11CB11C20912F
:101B2000AA223091AB22C20ED31EE11CF11C2091DF
:101B30006C2230916D22620F731F811D911D2091C7
:101B40008C2230918D22820E931EA11CB11C2091FB
:101B5000AC223091AD22C20ED31EE11CF11C2091AB
:101B60006E2230916F22620F731F811D911D209193
:101B70008E2230918F22820E931EA11CB11C2091C7
:101B8000AE223091AF22C20ED31EE11CF11C209177
:101B9000702230917122620F731F811D911D20915F
:101BA000902230919122820E931EA11CB11C209193
:101BB000B0223091B122C20ED31EE11CF11C209143
:101BC000722230917322620F731F811D911D20912B
:101BD000922230919322820E931EA11CB11C20915F
:101BE000B2223091B322C20ED31EE11CF11C20910F
:101BF000742230917522620F731F811D911D2091F7
:101C0000942230919522820E931EA11CB11C20912A
:101C1000B4223091B522C20ED31EE11CF11C2091DA
:101C2000762230917722620F731F811D911D2091C2
:101C3000962230919722820E931EA11CB11C2091F6
:101C4000B6223091B722C20ED31EE11CF11C24E053
:101C5000B694A794979487942A95D1F734E0F69494
:101C6000E794D794C7943A95D1F744E09695879531
:101C7000779567954A95D1F751D49B01AC01BED3B6
:101C800021D46215730508F4B4C01092C02292E00A
:101C9000592EC501B40142D426E636E646EE5FE38E
:101CA000CBD410D46017710740F45092C0228091B9
:101CB0002B228F5F80932B225886C701B6012ED42A
:101CC00020E030E040EC5FE3B7D4FCD388856615B4
:101CD000770508F08AC084608093C02280912A2210
:101CE0008F5F80932A22809129228F5F80932922FF
:101CF000809128228F5F80932822883208F45EC06A
:101D00002091BD2240912A2230E0C901880F991FFD
:101D1000820F931FAEE14A9F800D911D112495956E
:101D20008795959587958093BD2210922A222091C0
:101D3000BE2240912B2230E0C901880F991F820FEB
:101D4000931FBEE14B9F800D911D112495958795A2
:101D5000959587958093BE2210922B222091BF22C9
:101D600040912C2230E0C901880F991F820F931FE8
:101D7000EEE14E9F800D911D1124959587959595C7
:101D800087958093BF2210922C222091BC224091F3
:101D9000292230E0C901880F991F820F931FFEE1AD
:101DA0004F9F800D911D1124959587959595879549
:101DB0008093BC221092292210922822C85ADF4F09
:101DC000CDBFDEBFDF91CF911F910F91FF90EF90BC
:101DD000DF90CF90BF90AF909F908F907F906F904B
:101DE0005F904F903F902F900895882309F480CF03
:101DF0007ACF81E08093C02280912C228F5F8093E4
:101E00002C2283E0582E51E0588743CF1092C122F4
:101E10001092C222A2CD1092C3221092C4228FCD62
:101E20001092D1221092D2227CCD1092DF221092F9
:101E3000E02265CD281B390B2093CF223093D0228E
:101E40004CCD281B390B2093DD223093DE2235CD7B
:101E5000281B390B2093CD223093CE221ECD281B78
:101E6000390B2093DB223093DC2207CD281B390B62
:101E70002093CB223093CC22F0CC281B390B20931B
:101E8000D9223093DA22D9CC281B390B2093C922CE
:101E90003093CA22C2CC281B390B2093D72230930F
:101EA000D822ABCC281B390B2093C7223093C822F1
:101EB00094CC281B390B2093D5223093D6227DCC8D
:101EC000281B390B2093C5223093C62266CC281BD1
:101ED000390B2093D3223093D4224FCC892B89F411
:101EE000E0911920F0911A20309709F0199510927D
:101EF000312280911B2090911C208093542290933A
:101F00005522089580933222089560931D20709386
:101F10001E2080931F20909320200895885F9B4F60
:101F2000FC01108208950895885F9B4F21E0FC0119
:101F3000208308958F929F92AF92BF92CF92DF92AB
:101F4000EF92FF920F931F93CF93DF9300D01F92D6
:101F5000CDB7DEB76C0128EFC21A2BEFD20AD6013B
:101F60002C91233009F4E4C0A8F1253009F44BC0CA
:101F700008F499C0263009F04CC07C01BCE7EB1A8C
:101F8000BCEFFB0AB7010E94EB030CEF11E0F80174
:101F90002591359145915491F7016081718180E0DF
:101FA00090E029833A834B835C83B8D229813A81BC
:101FB0004B815C8141D386D2D7016D937D937D01A6
:101FC0000C5F1F4FB2E00C3F1B0709F7F6011082B0
:101FD00080E009C0213009F12230D9F40E942103A8
:101FE00083E0D6018C932496CDBFDEBFDF91CF91E5
:101FF0001F910F91FF90EF90DF90CF90BF90AF9027
:102000009F908F9008950E94210386E0D6018C93C3
:10201000EACFD6011C9280E0E6CF4C01BEE78B1AD6
:10202000BCEF9B0AF401108211827C01F0E8EF1AE8
:10203000FCEFFF0A2FEF3FEFD7012D933C93E8E22F
:10204000F1E2AC015E5F5A010FEF1FEF60E070E05C
:1020500003C0D4016D917C91219131916217730776
:1020600018F4D4012D933C932017310720F4D701A5
:102070002D933C93890122953295307F3227207F22
:1020800032272F5F3F47D5012D933D935D01B2E28B
:10209000E832FB07F1F6BC01CA010E94F20282E0BD
:1020A000F6018083A0CF4C01FAEF8F1AFBEF9F0A55
:1020B000D4011D921C927C01B4E0EB0EFB1E2FEFAD
:1020C0003FEFF70120833183E8E2F0E2AC015E5F8D
:1020D0005A010FEF1FEF60E070E003C0D4016D9173
:1020E0007C91219131916217730718F4D4012D93DB
:1020F0003C932017310720F4D7012D933C9389019D
:1021000022953295307F3227207F32272F5F3F473D
:10211000D5012D933D935D01B1E2E832FB07F1F665
:10212000BC01CA010E94F20285E0F60180835BCF08
:102130007C01BDEFFB1AB7010E94EB030CEF11E02D
:10214000F8012591359145915491F7016081718194
:1021500080E090E029833A834B835C83DFD129813F
:102160003A814B815C8168D2ADD1D7016D937D936B
:102170007D010C5F1F4FB2E00C3F1B0709F784E0A5
:10218000F601808330CF8C579C4F08959D5F089552
:102190008BEC8093520080915000886080935000B7
:1021A0008091510083FFFCCF82EC80935500809199
:1021B00050008061809350008091510084FFFCCFDB
:1021C00088ED84BF84E080934000809150008E7F32
:1021D000809350001092E3221092E4221092E522A4
:1021E0001092E62281E08093400882E080934608C6
:1021F0008FEF9CE7809366089093670880E8809350
:1022000000012FEF83EC99E0215080409040E1F7EE
:1022100000C000000E9467050E94860482EF96E2DB
:102220008130904408F084C0E0E0F0E480E090E089
:10223000329122918227932726E2E23FF207C0F7EC
:10224000D0D21092E2221092E1228091A200876007
:102250008093A200789483E090E040DE60E375E72D
:1022600080E090E052DE87E04DDE13E08091E122D5
:10227000813069F08091E22281FF0FC08091E222DB
:102280008D7F8093E2228091E122813099F70E9434
:1022900034058091E22281FDF1CF8091E22280FD20
:1022A0002CC08091E12281110CC08091E22282FF3A
:1022B00008C00E94C1048091E2228B7F8093E222B9
:1022C000D5CF8091E122823001F18091E1228330EB
:1022D00011F18091E22283FFC9CF87EE92E256DFAF
:1022E000EC0187EE92E24FDFBE010E9480068091F2
:1022F000E222877F8093E222B9CF0E94110680916B
:10230000E2228E7F8093E222B1CF87EE92E20CDE52
:102310001093E122ABCF87EE92E20CDE8111A6CFC3
:102320008091E22288608093E2221092E1229ECF87
:1023300080E090E085CF1F920F920FB60F9211248C
:102340008F939F93AF93BF9380912420815080936C
:10235000242081110BC081E08093A7068091E222A6
:1023600081608093E22280E1809324208091232069
:10237000815080932320811108C08091E2228260E5
:102380008093E2228AE08093232080912120909103
:10239000222001978093212090932220892B59F4A9
:1023A0008091E22284608093E22282E390E0809335
:1023B0002120909322208091E3229091E422A09109
:1023C000E522B091E6220196A11DB11D8093E32282
:1023D0009093E422A093E522B093E622BF91AF91BF
:1023E0009F918F910F900FBE0F901F90189587EEC1
:1023F00092E294CD87EE92E296CD5058BB27AA2761
:102400000ED0E0C0D1D030F0D6D020F031F49F3FD4
:1024100011F41EF4C6C00EF4E095E7FBBCC0E92F32
:10242000E2D080F3BA17620773078407950718F0A4
:1024300071F49EF5FAC00EF4E0950B2EBA2FA02D84
:102440000B01B90190010C01CA01A0011124FF2761
:10245000591B99F0593F50F4503E68F11A16F0405C
:10246000A22F232F342F4427585FF3CF469537955B
:102470002795A795F0405395C9F77EF41F16BA0B20
:10248000620B730B840BBAF09150A1F0FF0FBB1FCE
:10249000661F771F881FC2F70EC0BA0F621F731F17
:1024A000841F48F4879577956795B795F7959E3F74
:1024B00008F0B3CF9395880F08F09927EE0F979502
:1024C0008795089598D088F09F5790F0B92F992755
:1024D000B751A0F0D1F0660F771F881F991F1AF02F
:1024E000BA95C9F712C0B13081F09FD0B1E008951C
:1024F0009CC0672F782F8827B85F39F0B93FCCF39D
:10250000869577956795B395D9F73EF49095809524
:10251000709561957F4F8F4F9F4F0895E89409C044
:1025200097FB3EF490958095709561957F4F8F4F06
:102530009F4F9923A9F0F92F96E9BB279395F6951C
:10254000879577956795B795F111F8CFFAF4BB0F9A
:1025500011F460FF1BC06F5F7F4F8F4F9F4F16C0FE
:10256000882311F096E911C0772321F09EE8872F88
:10257000762F05C0662371F096E8862F70E060E044
:102580002AF09A95660F771F881FDAF7880F9695BD
:10259000879597F9089597F99F6780E870E060E064
:1025A00008959FEF80EC089500240A9416161706EC
:1025B00018060906089500240A9412161306140634
:1025C00005060895092E0394000C11F4882352F097
:1025D000BB0F40F4BF2B11F460FF04C06F5F7F4F4F
:1025E0008F4F9F4F089557FD9058440F551F59F036
:1025F0005F3F71F04795880F97FB991F61F09F3FF0
:1026000079F087950895121613061406551FF2CF18
:102610004695F1DF08C0161617061806991FF1CF68
:1026200086957105610508940895E894BB2766278F
:102630007727CB0197F908950BD0C4CFB5DF28F0E9
:10264000BADF18F0952309F0A6CFABCF1124EECF57
:10265000CADFA0F3959FD1F3950F50E0551F629FFD
:10266000F001729FBB27F00DB11D639FAA27F00DEB
:10267000B11DAA1F649F6627B00DA11D661F829F12
:102680002227B00DA11D621F739FB00DA11D621FF7
:10269000839FA00D611D221F749F3327A00D611D14
:1026A000231F849F600D211D822F762F6A2F1124F6
:1026B0009F5750408AF0E1F088234AF0EE0FFF1F49
:1026C000BB1F661F771F881F91505040A9F79E3F80
:1026D000510570F060CFAACF5F3FECF3983EDCF37A
:1026E000869577956795B795F795E7959F5FC1F7BD
:1026F000FE2B880F911D9695879597F90895A1E275
:102700001A2EAA1BBB1BFD010DC0AA1FBB1FEE1F6B
:10271000FF1FA217B307E407F50720F0A21BB30BB6
:10272000E40BF50B661F771F881F991F1A9469F732
:1027300060957095809590959B01AC01BD01CF018E
:1027400008950790F691E02D19948F929F92AF9281
:10275000BF92CF92DF92EF92FF92CF93DF93EC0183
:10276000688179818A819B81611571058105910557
:1027700021F464E279ED8BE597E02DE133EF41E060
:1027800050E04ED049015A019B01AC01A7EAB1E4E7
:1027900063D06B017C01ACEEB4EFA501940168D06D
:1027A000C60ED71EE81EF91EF7FE06C081E0C81A45
:1027B000D108E10880E8F80AC882D982EA82FB825F
:1027C000C6019F77DF91CF91FF90EF90DF90CF9080
:1027D000BF90AF909F908F900895B7CF80E090E228
:1027E000B4CFA0E0B0E08093002090930120A093AC
:1027F0000220B09303200895E0ECF1E0A785A7FD47
:10280000FDCFA485A860A4876050704F00C0FB0175
:10281000DC0102C001900D9241505040D8F708955C
:10282000052E97FB16F400940FD057FD05D067DFF7
:1028300007FC02D046F408C050954095309521958C
:102840003F4F4F4F5F4F08959095809570956195DC
:102850007F4F8F4F9F4F08950FD0A59F900DB49F2E
:10286000900DA49F800D911D11240895B7FFF4CF02
:10287000F3DF821B930B0895A29FB001B39FC001A9
:10288000A39F700D811D1124911DB29F700D811D9C
:102890001124911D089513E0CEEFD2E000E005C0B1
:1028A00022970109FE010BBF4CDFC030D10780E049
:0828B0000807B1F7F894FFCF0F
:1028B800010000004C656572000000000000000087
:1028C8000000000000000000000000000060EA00B6
:0628D8000032000A1000AE
:00000001FF
